{
  "contractName": "SupplyChain",
  "abi": [
    {
      "inputs": [],
      "payable": true,
      "stateMutability": "payable",
      "type": "constructor"
    },
    {
      "anonymous": false,
      "inputs": [
        {
          "indexed": true,
          "internalType": "address",
          "name": "account",
          "type": "address"
        }
      ],
      "name": "ConsumerAdd",
      "type": "event"
    },
    {
      "anonymous": false,
      "inputs": [
        {
          "indexed": true,
          "internalType": "address",
          "name": "account",
          "type": "address"
        }
      ],
      "name": "ConsumerRemoved",
      "type": "event"
    },
    {
      "anonymous": false,
      "inputs": [
        {
          "indexed": true,
          "internalType": "address",
          "name": "account",
          "type": "address"
        }
      ],
      "name": "DistributorAdd",
      "type": "event"
    },
    {
      "anonymous": false,
      "inputs": [
        {
          "indexed": true,
          "internalType": "address",
          "name": "account",
          "type": "address"
        }
      ],
      "name": "DistributorRemove",
      "type": "event"
    },
    {
      "anonymous": false,
      "inputs": [
        {
          "indexed": true,
          "internalType": "address",
          "name": "account",
          "type": "address"
        }
      ],
      "name": "FarmerAdded",
      "type": "event"
    },
    {
      "anonymous": false,
      "inputs": [
        {
          "indexed": true,
          "internalType": "address",
          "name": "account",
          "type": "address"
        }
      ],
      "name": "FarmerRemoved",
      "type": "event"
    },
    {
      "anonymous": false,
      "inputs": [
        {
          "indexed": false,
          "internalType": "uint256",
          "name": "upc",
          "type": "uint256"
        }
      ],
      "name": "ForSale",
      "type": "event"
    },
    {
      "anonymous": false,
      "inputs": [
        {
          "indexed": false,
          "internalType": "uint256",
          "name": "upc",
          "type": "uint256"
        }
      ],
      "name": "Harvested",
      "type": "event"
    },
    {
      "anonymous": false,
      "inputs": [
        {
          "indexed": false,
          "internalType": "uint256",
          "name": "upc",
          "type": "uint256"
        }
      ],
      "name": "Packed",
      "type": "event"
    },
    {
      "anonymous": false,
      "inputs": [
        {
          "indexed": false,
          "internalType": "uint256",
          "name": "upc",
          "type": "uint256"
        }
      ],
      "name": "Processed",
      "type": "event"
    },
    {
      "anonymous": false,
      "inputs": [
        {
          "indexed": false,
          "internalType": "uint256",
          "name": "upc",
          "type": "uint256"
        }
      ],
      "name": "Purchased",
      "type": "event"
    },
    {
      "anonymous": false,
      "inputs": [
        {
          "indexed": false,
          "internalType": "uint256",
          "name": "upc",
          "type": "uint256"
        }
      ],
      "name": "Received",
      "type": "event"
    },
    {
      "anonymous": false,
      "inputs": [
        {
          "indexed": true,
          "internalType": "address",
          "name": "account",
          "type": "address"
        }
      ],
      "name": "RetailerAdd",
      "type": "event"
    },
    {
      "anonymous": false,
      "inputs": [
        {
          "indexed": true,
          "internalType": "address",
          "name": "account",
          "type": "address"
        }
      ],
      "name": "RetailerRemove",
      "type": "event"
    },
    {
      "anonymous": false,
      "inputs": [
        {
          "indexed": false,
          "internalType": "uint256",
          "name": "upc",
          "type": "uint256"
        }
      ],
      "name": "Shipped",
      "type": "event"
    },
    {
      "anonymous": false,
      "inputs": [
        {
          "indexed": false,
          "internalType": "uint256",
          "name": "upc",
          "type": "uint256"
        }
      ],
      "name": "Sold",
      "type": "event"
    },
    {
      "anonymous": false,
      "inputs": [
        {
          "indexed": true,
          "internalType": "address",
          "name": "oldOwner",
          "type": "address"
        },
        {
          "indexed": true,
          "internalType": "address",
          "name": "newOwner",
          "type": "address"
        }
      ],
      "name": "TransferOwnership",
      "type": "event"
    },
    {
      "constant": false,
      "inputs": [
        {
          "internalType": "address",
          "name": "account",
          "type": "address"
        }
      ],
      "name": "addConsumer",
      "outputs": [],
      "payable": false,
      "stateMutability": "nonpayable",
      "type": "function"
    },
    {
      "constant": false,
      "inputs": [
        {
          "internalType": "address",
          "name": "account",
          "type": "address"
        }
      ],
      "name": "addDistributor",
      "outputs": [],
      "payable": false,
      "stateMutability": "nonpayable",
      "type": "function"
    },
    {
      "constant": false,
      "inputs": [
        {
          "internalType": "address",
          "name": "account",
          "type": "address"
        }
      ],
      "name": "addFarmer",
      "outputs": [],
      "payable": false,
      "stateMutability": "nonpayable",
      "type": "function"
    },
    {
      "constant": false,
      "inputs": [
        {
          "internalType": "address",
          "name": "account",
          "type": "address"
        }
      ],
      "name": "addRetailer",
      "outputs": [],
      "payable": false,
      "stateMutability": "nonpayable",
      "type": "function"
    },
    {
      "constant": true,
      "inputs": [
        {
          "internalType": "address",
          "name": "account",
          "type": "address"
        }
      ],
      "name": "isConsumer",
      "outputs": [
        {
          "internalType": "bool",
          "name": "",
          "type": "bool"
        }
      ],
      "payable": false,
      "stateMutability": "view",
      "type": "function"
    },
    {
      "constant": true,
      "inputs": [
        {
          "internalType": "address",
          "name": "account",
          "type": "address"
        }
      ],
      "name": "isDistributor",
      "outputs": [
        {
          "internalType": "bool",
          "name": "",
          "type": "bool"
        }
      ],
      "payable": false,
      "stateMutability": "view",
      "type": "function"
    },
    {
      "constant": true,
      "inputs": [
        {
          "internalType": "address",
          "name": "account",
          "type": "address"
        }
      ],
      "name": "isFarmer",
      "outputs": [
        {
          "internalType": "bool",
          "name": "",
          "type": "bool"
        }
      ],
      "payable": false,
      "stateMutability": "view",
      "type": "function"
    },
    {
      "constant": true,
      "inputs": [],
      "name": "isOwner",
      "outputs": [
        {
          "internalType": "bool",
          "name": "",
          "type": "bool"
        }
      ],
      "payable": false,
      "stateMutability": "view",
      "type": "function"
    },
    {
      "constant": true,
      "inputs": [
        {
          "internalType": "address",
          "name": "account",
          "type": "address"
        }
      ],
      "name": "isRetailer",
      "outputs": [
        {
          "internalType": "bool",
          "name": "",
          "type": "bool"
        }
      ],
      "payable": false,
      "stateMutability": "view",
      "type": "function"
    },
    {
      "constant": true,
      "inputs": [],
      "name": "owner",
      "outputs": [
        {
          "internalType": "address payable",
          "name": "",
          "type": "address"
        }
      ],
      "payable": false,
      "stateMutability": "view",
      "type": "function"
    },
    {
      "constant": false,
      "inputs": [],
      "name": "renounceConsumer",
      "outputs": [],
      "payable": false,
      "stateMutability": "nonpayable",
      "type": "function"
    },
    {
      "constant": false,
      "inputs": [],
      "name": "renounceDistributor",
      "outputs": [],
      "payable": false,
      "stateMutability": "nonpayable",
      "type": "function"
    },
    {
      "constant": false,
      "inputs": [],
      "name": "renounceFarmer",
      "outputs": [],
      "payable": false,
      "stateMutability": "nonpayable",
      "type": "function"
    },
    {
      "constant": false,
      "inputs": [],
      "name": "renounceOwnership",
      "outputs": [],
      "payable": false,
      "stateMutability": "nonpayable",
      "type": "function"
    },
    {
      "constant": false,
      "inputs": [],
      "name": "renounceRetailer",
      "outputs": [],
      "payable": false,
      "stateMutability": "nonpayable",
      "type": "function"
    },
    {
      "constant": false,
      "inputs": [
        {
          "internalType": "address payable",
          "name": "newOwner",
          "type": "address"
        }
      ],
      "name": "transferOwnership",
      "outputs": [],
      "payable": false,
      "stateMutability": "nonpayable",
      "type": "function"
    },
    {
      "constant": false,
      "inputs": [],
      "name": "kill",
      "outputs": [],
      "payable": false,
      "stateMutability": "nonpayable",
      "type": "function"
    },
    {
      "constant": false,
      "inputs": [
        {
          "internalType": "uint256",
          "name": "_upc",
          "type": "uint256"
        },
        {
          "internalType": "address",
          "name": "_originFarmerID",
          "type": "address"
        },
        {
          "internalType": "string",
          "name": "_originFarmName",
          "type": "string"
        },
        {
          "internalType": "string",
          "name": "_originFarmInformation",
          "type": "string"
        },
        {
          "internalType": "string",
          "name": "_originFarmLatitude",
          "type": "string"
        },
        {
          "internalType": "string",
          "name": "_originFarmLongitude",
          "type": "string"
        },
        {
          "internalType": "string",
          "name": "_productNotes",
          "type": "string"
        }
      ],
      "name": "harvestItem",
      "outputs": [],
      "payable": false,
      "stateMutability": "nonpayable",
      "type": "function"
    },
    {
      "constant": false,
      "inputs": [
        {
          "internalType": "uint256",
          "name": "_upc",
          "type": "uint256"
        }
      ],
      "name": "processItem",
      "outputs": [],
      "payable": false,
      "stateMutability": "nonpayable",
      "type": "function"
    },
    {
      "constant": false,
      "inputs": [
        {
          "internalType": "uint256",
          "name": "_upc",
          "type": "uint256"
        }
      ],
      "name": "packItem",
      "outputs": [],
      "payable": false,
      "stateMutability": "nonpayable",
      "type": "function"
    },
    {
      "constant": false,
      "inputs": [
        {
          "internalType": "uint256",
          "name": "_upc",
          "type": "uint256"
        },
        {
          "internalType": "uint256",
          "name": "_price",
          "type": "uint256"
        }
      ],
      "name": "markItemForSale",
      "outputs": [],
      "payable": false,
      "stateMutability": "nonpayable",
      "type": "function"
    },
    {
      "constant": false,
      "inputs": [
        {
          "internalType": "uint256",
          "name": "_upc",
          "type": "uint256"
        }
      ],
      "name": "buyItem",
      "outputs": [],
      "payable": true,
      "stateMutability": "payable",
      "type": "function"
    },
    {
      "constant": false,
      "inputs": [
        {
          "internalType": "uint256",
          "name": "_upc",
          "type": "uint256"
        }
      ],
      "name": "shipItem",
      "outputs": [],
      "payable": false,
      "stateMutability": "nonpayable",
      "type": "function"
    },
    {
      "constant": false,
      "inputs": [
        {
          "internalType": "uint256",
          "name": "_upc",
          "type": "uint256"
        }
      ],
      "name": "receiveItem",
      "outputs": [],
      "payable": false,
      "stateMutability": "nonpayable",
      "type": "function"
    },
    {
      "constant": false,
      "inputs": [
        {
          "internalType": "uint256",
          "name": "_upc",
          "type": "uint256"
        }
      ],
      "name": "purchaseItem",
      "outputs": [],
      "payable": false,
      "stateMutability": "nonpayable",
      "type": "function"
    },
    {
      "constant": true,
      "inputs": [
        {
          "internalType": "uint256",
          "name": "_upc",
          "type": "uint256"
        }
      ],
      "name": "fetchItemBufferOne",
      "outputs": [
        {
          "internalType": "uint256",
          "name": "itemSKU",
          "type": "uint256"
        },
        {
          "internalType": "uint256",
          "name": "itemUPC",
          "type": "uint256"
        },
        {
          "internalType": "address",
          "name": "ownerID",
          "type": "address"
        },
        {
          "internalType": "address",
          "name": "originFarmerID",
          "type": "address"
        },
        {
          "internalType": "string",
          "name": "originFarmName",
          "type": "string"
        },
        {
          "internalType": "string",
          "name": "originFarmInformation",
          "type": "string"
        },
        {
          "internalType": "string",
          "name": "originFarmLatitude",
          "type": "string"
        },
        {
          "internalType": "string",
          "name": "originFarmLongitude",
          "type": "string"
        }
      ],
      "payable": false,
      "stateMutability": "view",
      "type": "function"
    },
    {
      "constant": true,
      "inputs": [
        {
          "internalType": "uint256",
          "name": "_upc",
          "type": "uint256"
        }
      ],
      "name": "fetchItemBufferTwo",
      "outputs": [
        {
          "internalType": "uint256",
          "name": "itemSKU",
          "type": "uint256"
        },
        {
          "internalType": "uint256",
          "name": "itemUPC",
          "type": "uint256"
        },
        {
          "internalType": "uint256",
          "name": "productID",
          "type": "uint256"
        },
        {
          "internalType": "string",
          "name": "productNotes",
          "type": "string"
        },
        {
          "internalType": "uint256",
          "name": "productPrice",
          "type": "uint256"
        },
        {
          "internalType": "uint256",
          "name": "itemState",
          "type": "uint256"
        },
        {
          "internalType": "address",
          "name": "distributorID",
          "type": "address"
        },
        {
          "internalType": "address",
          "name": "retailerID",
          "type": "address"
        },
        {
          "internalType": "address",
          "name": "consumerID",
          "type": "address"
        }
      ],
      "payable": false,
      "stateMutability": "view",
      "type": "function"
    }
  ],
  "bytecode": "0x6080604052336000806101000a81548173ffffffffffffffffffffffffffffffffffffffff021916908373ffffffffffffffffffffffffffffffffffffffff1602179055506000809054906101000a900473ffffffffffffffffffffffffffffffffffffffff1673ffffffffffffffffffffffffffffffffffffffff16600073ffffffffffffffffffffffffffffffffffffffff167f5c486528ec3e3f0ea91181cff8116f02bfa350e03b8b6f12e00765adbb5af85c60405160405180910390a3620000d1336200011a60201b60201c565b620000e2336200017b60201b60201c565b620000f333620001dc60201b60201c565b62000104336200023d60201b60201c565b60016006819055506001600581905550620003e7565b620001358160016200029e60201b62002fbb1790919060201c565b8073ffffffffffffffffffffffffffffffffffffffff167f2e0ded4123377a3c2bc9a26f1717655a129e2f20752924d42e730ec89c83dbd060405160405180910390a250565b620001968160026200029e60201b62002fbb1790919060201c565b8073ffffffffffffffffffffffffffffffffffffffff167ffb0e41ada6db6cce9d82b7cbb04e0798101c0388ade90bbfd9ee50d8520c97de60405160405180910390a250565b620001f78160036200029e60201b62002fbb1790919060201c565b8073ffffffffffffffffffffffffffffffffffffffff167feec1214e6b8cb00b90a8b598bc5a7bdf4fbde6166f05ae8354c9f56f78971dba60405160405180910390a250565b620002588160046200029e60201b62002fbb1790919060201c565b8073ffffffffffffffffffffffffffffffffffffffff167f475f08a0d330251c9b2f04d9ce6dd51056b2681a3389e4abc8342ff284d968ab60405160405180910390a250565b600073ffffffffffffffffffffffffffffffffffffffff168173ffffffffffffffffffffffffffffffffffffffff161415620002d957600080fd5b620002eb82826200035460201b60201c565b15620002f657600080fd5b60018260000160008373ffffffffffffffffffffffffffffffffffffffff1673ffffffffffffffffffffffffffffffffffffffff16815260200190815260200160002060006101000a81548160ff0219169083151502179055505050565b60008073ffffffffffffffffffffffffffffffffffffffff168273ffffffffffffffffffffffffffffffffffffffff1614156200039057600080fd5b8260000160008373ffffffffffffffffffffffffffffffffffffffff1673ffffffffffffffffffffffffffffffffffffffff16815260200190815260200160002060009054906101000a900460ff16905092915050565b61330780620003f76000396000f3fe60806040526004361061019c5760003560e01c80638da5cb5b116100ec578063cab0c6021161008a578063e7fb74c711610064578063e7fb74c714610db9578063f2fde38b14610de7578063f30fc48014610e38578063f61c899a14610e735761019c565b8063cab0c60214610d22578063d38ea5bf14610d67578063db0e6a2f14610da25761019c565b80638f32d59b116100c65780638f32d59b14610901578063a26be99914610930578063b94290691461096b578063bdd8a6a8146109d45761019c565b80638da5cb5b146107f05780638ec4f505146108475780638f0c86fa146108985761019c565b806366225ff91161015957806377c459131161013357806377c45913146104b357806380c3f96d1461071f57806380fc0ce414610770578063834ff739146107875761019c565b806366225ff9146102db578063715018a61461044b5780637250e224146104625761019c565b8063112940f9146101a157806341c0e1b5146101f257806349dae766146102095780635da09b881461024457806361e6982d146102ad578063644241db146102c4575b600080fd5b3480156101ad57600080fd5b506101f0600480360360208110156101c457600080fd5b81019080803573ffffffffffffffffffffffffffffffffffffffff169060200190929190505050610eae565b005b3480156101fe57600080fd5b50610207610ecc565b005b34801561021557600080fd5b506102426004803603602081101561022c57600080fd5b8101908080359060200190929190505050610efd565b005b34801561025057600080fd5b506102936004803603602081101561026757600080fd5b81019080803573ffffffffffffffffffffffffffffffffffffffff169060200190929190505050611039565b604051808215151515815260200191505060405180910390f35b3480156102b957600080fd5b506102c2611056565b005b3480156102d057600080fd5b506102d9611061565b005b3480156102e757600080fd5b50610314600480360360208110156102fe57600080fd5b810190808035906020019092919050505061106c565b604051808a8152602001898152602001888152602001806020018781526020018681526020018573ffffffffffffffffffffffffffffffffffffffff1673ffffffffffffffffffffffffffffffffffffffff1681526020018473ffffffffffffffffffffffffffffffffffffffff1673ffffffffffffffffffffffffffffffffffffffff1681526020018373ffffffffffffffffffffffffffffffffffffffff1673ffffffffffffffffffffffffffffffffffffffff168152602001828103825288818151815260200191508051906020019080838360005b838110156104085780820151818401526020810190506103ed565b50505050905090810190601f1680156104355780820380516001836020036101000a031916815260200191505b509a505050505050505050505060405180910390f35b34801561045757600080fd5b50610460611630565b005b34801561046e57600080fd5b506104b16004803603602081101561048557600080fd5b81019080803573ffffffffffffffffffffffffffffffffffffffff169060200190929190505050611700565b005b3480156104bf57600080fd5b506104ec600480360360208110156104d657600080fd5b810190808035906020019092919050505061171e565b604051808981526020018881526020018773ffffffffffffffffffffffffffffffffffffffff1673ffffffffffffffffffffffffffffffffffffffff1681526020018673ffffffffffffffffffffffffffffffffffffffff1673ffffffffffffffffffffffffffffffffffffffff16815260200180602001806020018060200180602001858103855289818151815260200191508051906020019080838360005b838110156105a857808201518184015260208101905061058d565b50505050905090810190601f1680156105d55780820380516001836020036101000a031916815260200191505b50858103845288818151815260200191508051906020019080838360005b8381101561060e5780820151818401526020810190506105f3565b50505050905090810190601f16801561063b5780820380516001836020036101000a031916815260200191505b50858103835287818151815260200191508051906020019080838360005b83811015610674578082015181840152602081019050610659565b50505050905090810190601f1680156106a15780820380516001836020036101000a031916815260200191505b50858103825286818151815260200191508051906020019080838360005b838110156106da5780820151818401526020810190506106bf565b50505050905090810190601f1680156107075780820380516001836020036101000a031916815260200191505b509c5050505050505050505050505060405180910390f35b34801561072b57600080fd5b5061076e6004803603602081101561074257600080fd5b81019080803573ffffffffffffffffffffffffffffffffffffffff169060200190929190505050611cc0565b005b34801561077c57600080fd5b50610785611cde565b005b34801561079357600080fd5b506107d6600480360360208110156107aa57600080fd5b81019080803573ffffffffffffffffffffffffffffffffffffffff169060200190929190505050611ce9565b604051808215151515815260200191505060405180910390f35b3480156107fc57600080fd5b50610805611d06565b604051808273ffffffffffffffffffffffffffffffffffffffff1673ffffffffffffffffffffffffffffffffffffffff16815260200191505060405180910390f35b34801561085357600080fd5b506108966004803603602081101561086a57600080fd5b81019080803573ffffffffffffffffffffffffffffffffffffffff169060200190929190505050611d2f565b005b3480156108a457600080fd5b506108e7600480360360208110156108bb57600080fd5b81019080803573ffffffffffffffffffffffffffffffffffffffff169060200190929190505050611d4d565b604051808215151515815260200191505060405180910390f35b34801561090d57600080fd5b50610916611d6a565b604051808215151515815260200191505060405180910390f35b34801561093c57600080fd5b506109696004803603602081101561095357600080fd5b8101908080359060200190929190505050611dc1565b005b34801561097757600080fd5b506109ba6004803603602081101561098e57600080fd5b81019080803573ffffffffffffffffffffffffffffffffffffffff169060200190929190505050611f19565b604051808215151515815260200191505060405180910390f35b3480156109e057600080fd5b50610d20600480360360e08110156109f757600080fd5b8101908080359060200190929190803573ffffffffffffffffffffffffffffffffffffffff16906020019092919080359060200190640100000000811115610a3e57600080fd5b820183602082011115610a5057600080fd5b80359060200191846001830284011164010000000083111715610a7257600080fd5b91908080601f016020809104026020016040519081016040528093929190818152602001838380828437600081840152601f19601f82011690508083019250505050505050919291929080359060200190640100000000811115610ad557600080fd5b820183602082011115610ae757600080fd5b80359060200191846001830284011164010000000083111715610b0957600080fd5b91908080601f016020809104026020016040519081016040528093929190818152602001838380828437600081840152601f19601f82011690508083019250505050505050919291929080359060200190640100000000811115610b6c57600080fd5b820183602082011115610b7e57600080fd5b80359060200191846001830284011164010000000083111715610ba057600080fd5b91908080601f016020809104026020016040519081016040528093929190818152602001838380828437600081840152601f19601f82011690508083019250505050505050919291929080359060200190640100000000811115610c0357600080fd5b820183602082011115610c1557600080fd5b80359060200191846001830284011164010000000083111715610c3757600080fd5b91908080601f016020809104026020016040519081016040528093929190818152602001838380828437600081840152601f19601f82011690508083019250505050505050919291929080359060200190640100000000811115610c9a57600080fd5b820183602082011115610cac57600080fd5b80359060200191846001830284011164010000000083111715610cce57600080fd5b91908080601f016020809104026020016040519081016040528093929190818152602001838380828437600081840152601f19601f820116905080830192505050505050509192919290505050611f36565b005b348015610d2e57600080fd5b50610d6560048036036040811015610d4557600080fd5b810190808035906020019092919080359060200190929190505050612303565b005b348015610d7357600080fd5b50610da060048036036020811015610d8a57600080fd5b810190808035906020019092919050505061245b565b005b348015610dae57600080fd5b50610db76125b3565b005b610de560048036036020811015610dcf57600080fd5b81019080803590602001909291905050506125be565b005b348015610df357600080fd5b50610e3660048036036020811015610e0a57600080fd5b81019080803573ffffffffffffffffffffffffffffffffffffffff1690602001909291905050506128cc565b005b348015610e4457600080fd5b50610e7160048036036020811015610e5b57600080fd5b81019080803590602001909291905050506128e9565b005b348015610e7f57600080fd5b50610eac60048036036020811015610e9657600080fd5b8101908080359060200190929190505050612a25565b005b610eb733611ce9565b610ec057600080fd5b610ec981612b61565b50565b610ed4611d6a565b610edd57600080fd5b610ee5611d06565b73ffffffffffffffffffffffffffffffffffffffff16ff5b610f0633611f19565b610f0f57600080fd5b8060006007811115610f1d57fe5b60076000838152602001908152602001600020600b0160009054906101000a900460ff166007811115610f4c57fe5b14610f5657600080fd5b6007600083815260200190815260200160002060030160009054906101000a900473ffffffffffffffffffffffffffffffffffffffff168073ffffffffffffffffffffffffffffffffffffffff163373ffffffffffffffffffffffffffffffffffffffff1614610fc557600080fd5b600160076000858152602001908152602001600020600b0160006101000a81548160ff02191690836007811115610ff857fe5b02179055507f5afe3b1bf87069693c075da5c22a98d63d1aef98a30dbbe538d0781a98b77ee5836040518082815260200191505060405180910390a1505050565b600061104f826003612bbb90919063ffffffff16565b9050919050565b61105f33612c4d565b565b61106a33612ca7565b565b600080600060606000806000806000611083613112565b600760008c8152602001908152602001600020604051806101e001604052908160008201548152602001600182015481526020016002820160009054906101000a900473ffffffffffffffffffffffffffffffffffffffff1673ffffffffffffffffffffffffffffffffffffffff1673ffffffffffffffffffffffffffffffffffffffff1681526020016003820160009054906101000a900473ffffffffffffffffffffffffffffffffffffffff1673ffffffffffffffffffffffffffffffffffffffff1673ffffffffffffffffffffffffffffffffffffffff168152602001600482018054600181600116156101000203166002900480601f0160208091040260200160405190810160405280929190818152602001828054600181600116156101000203166002900480156111fb5780601f106111d0576101008083540402835291602001916111fb565b820191906000526020600020905b8154815290600101906020018083116111de57829003601f168201915b50505050508152602001600582018054600181600116156101000203166002900480601f01602080910402602001604051908101604052809291908181526020018280546001816001161561010002031660029004801561129d5780601f106112725761010080835404028352916020019161129d565b820191906000526020600020905b81548152906001019060200180831161128057829003601f168201915b50505050508152602001600682018054600181600116156101000203166002900480601f01602080910402602001604051908101604052809291908181526020018280546001816001161561010002031660029004801561133f5780601f106113145761010080835404028352916020019161133f565b820191906000526020600020905b81548152906001019060200180831161132257829003601f168201915b50505050508152602001600782018054600181600116156101000203166002900480601f0160208091040260200160405190810160405280929190818152602001828054600181600116156101000203166002900480156113e15780601f106113b6576101008083540402835291602001916113e1565b820191906000526020600020905b8154815290600101906020018083116113c457829003601f168201915b5050505050815260200160088201548152602001600982018054600181600116156101000203166002900480601f01602080910402602001604051908101604052809291908181526020018280546001816001161561010002031660029004801561148d5780601f106114625761010080835404028352916020019161148d565b820191906000526020600020905b81548152906001019060200180831161147057829003601f168201915b50505050508152602001600a8201548152602001600b820160009054906101000a900460ff1660078111156114be57fe5b60078111156114c957fe5b8152602001600b820160019054906101000a900473ffffffffffffffffffffffffffffffffffffffff1673ffffffffffffffffffffffffffffffffffffffff1673ffffffffffffffffffffffffffffffffffffffff168152602001600c820160009054906101000a900473ffffffffffffffffffffffffffffffffffffffff1673ffffffffffffffffffffffffffffffffffffffff1673ffffffffffffffffffffffffffffffffffffffff168152602001600d820160009054906101000a900473ffffffffffffffffffffffffffffffffffffffff1673ffffffffffffffffffffffffffffffffffffffff1673ffffffffffffffffffffffffffffffffffffffff168152505090508060000151995080602001519850806101000151975080610120015196508061014001519550806101600151600781111561160857fe5b94508061018001519350806101a001519250806101c001519150509193959799909294969850565b611638611d6a565b61164157600080fd5b600073ffffffffffffffffffffffffffffffffffffffff166000809054906101000a900473ffffffffffffffffffffffffffffffffffffffff1673ffffffffffffffffffffffffffffffffffffffff167f5c486528ec3e3f0ea91181cff8116f02bfa350e03b8b6f12e00765adbb5af85c60405160405180910390a360008060006101000a81548173ffffffffffffffffffffffffffffffffffffffff021916908373ffffffffffffffffffffffffffffffffffffffff160217905550565b61170933611d4d565b61171257600080fd5b61171b81612d01565b50565b600080600080606080606080611732613112565b600760008b8152602001908152602001600020604051806101e001604052908160008201548152602001600182015481526020016002820160009054906101000a900473ffffffffffffffffffffffffffffffffffffffff1673ffffffffffffffffffffffffffffffffffffffff1673ffffffffffffffffffffffffffffffffffffffff1681526020016003820160009054906101000a900473ffffffffffffffffffffffffffffffffffffffff1673ffffffffffffffffffffffffffffffffffffffff1673ffffffffffffffffffffffffffffffffffffffff168152602001600482018054600181600116156101000203166002900480601f0160208091040260200160405190810160405280929190818152602001828054600181600116156101000203166002900480156118aa5780601f1061187f576101008083540402835291602001916118aa565b820191906000526020600020905b81548152906001019060200180831161188d57829003601f168201915b50505050508152602001600582018054600181600116156101000203166002900480601f01602080910402602001604051908101604052809291908181526020018280546001816001161561010002031660029004801561194c5780601f106119215761010080835404028352916020019161194c565b820191906000526020600020905b81548152906001019060200180831161192f57829003601f168201915b50505050508152602001600682018054600181600116156101000203166002900480601f0160208091040260200160405190810160405280929190818152602001828054600181600116156101000203166002900480156119ee5780601f106119c3576101008083540402835291602001916119ee565b820191906000526020600020905b8154815290600101906020018083116119d157829003601f168201915b50505050508152602001600782018054600181600116156101000203166002900480601f016020809104026020016040519081016040528092919081815260200182805460018160011615610100020316600290048015611a905780601f10611a6557610100808354040283529160200191611a90565b820191906000526020600020905b815481529060010190602001808311611a7357829003601f168201915b5050505050815260200160088201548152602001600982018054600181600116156101000203166002900480601f016020809104026020016040519081016040528092919081815260200182805460018160011615610100020316600290048015611b3c5780601f10611b1157610100808354040283529160200191611b3c565b820191906000526020600020905b815481529060010190602001808311611b1f57829003601f168201915b50505050508152602001600a8201548152602001600b820160009054906101000a900460ff166007811115611b6d57fe5b6007811115611b7857fe5b8152602001600b820160019054906101000a900473ffffffffffffffffffffffffffffffffffffffff1673ffffffffffffffffffffffffffffffffffffffff1673ffffffffffffffffffffffffffffffffffffffff168152602001600c820160009054906101000a900473ffffffffffffffffffffffffffffffffffffffff1673ffffffffffffffffffffffffffffffffffffffff1673ffffffffffffffffffffffffffffffffffffffff168152602001600d820160009054906101000a900473ffffffffffffffffffffffffffffffffffffffff1673ffffffffffffffffffffffffffffffffffffffff1673ffffffffffffffffffffffffffffffffffffffff16815250509050806000015198508997508060400151965080606001519550806080015194508060a0015193508060c0015192508060e00151915050919395975091939597565b611cc933611f19565b611cd257600080fd5b611cdb81612d5b565b50565b611ce733612db5565b565b6000611cff826004612bbb90919063ffffffff16565b9050919050565b60008060009054906101000a900473ffffffffffffffffffffffffffffffffffffffff16905090565b611d3833611039565b611d4157600080fd5b611d4a81612e0f565b50565b6000611d63826002612bbb90919063ffffffff16565b9050919050565b60008060009054906101000a900473ffffffffffffffffffffffffffffffffffffffff1673ffffffffffffffffffffffffffffffffffffffff163373ffffffffffffffffffffffffffffffffffffffff1614905090565b611dca33611039565b611dd357600080fd5b8060056007811115611de157fe5b60076000838152602001908152602001600020600b0160009054906101000a900460ff166007811115611e1057fe5b14611e1a57600080fd5b6000600760008481526020019081526020016000209050338160020160006101000a81548173ffffffffffffffffffffffffffffffffffffffff021916908373ffffffffffffffffffffffffffffffffffffffff1602179055503381600c0160006101000a81548173ffffffffffffffffffffffffffffffffffffffff021916908373ffffffffffffffffffffffffffffffffffffffff160217905550600681600b0160006101000a81548160ff02191690836007811115611ed857fe5b02179055507fa8142743f8f70a4c26f3691cf4ed59718381fb2f18070ec52be1f1022d855557836040518082815260200191505060405180910390a1505050565b6000611f2f826001612bbb90919063ffffffff16565b9050919050565b611f3f33611f19565b611f4857600080fd5b868060076000838152602001908152602001600020600101541415611f6c57600080fd5b604051806101e0016040528060065481526020018981526020013373ffffffffffffffffffffffffffffffffffffffff1681526020018873ffffffffffffffffffffffffffffffffffffffff1681526020018781526020018681526020018581526020018481526020016006548a0181526020018381526020016000815260200160006007811115611ffa57fe5b8152602001600073ffffffffffffffffffffffffffffffffffffffff168152602001600073ffffffffffffffffffffffffffffffffffffffff168152602001600073ffffffffffffffffffffffffffffffffffffffff16815250600760008a8152602001908152602001600020600082015181600001556020820151816001015560408201518160020160006101000a81548173ffffffffffffffffffffffffffffffffffffffff021916908373ffffffffffffffffffffffffffffffffffffffff16021790555060608201518160030160006101000a81548173ffffffffffffffffffffffffffffffffffffffff021916908373ffffffffffffffffffffffffffffffffffffffff1602179055506080820151816004019080519060200190612125929190613201565b5060a0820151816005019080519060200190612142929190613201565b5060c082015181600601908051906020019061215f929190613201565b5060e082015181600701908051906020019061217c929190613201565b5061010082015181600801556101208201518160090190805190602001906121a5929190613201565b5061014082015181600a015561016082015181600b0160006101000a81548160ff021916908360078111156121d657fe5b021790555061018082015181600b0160016101000a81548173ffffffffffffffffffffffffffffffffffffffff021916908373ffffffffffffffffffffffffffffffffffffffff1602179055506101a082015181600c0160006101000a81548173ffffffffffffffffffffffffffffffffffffffff021916908373ffffffffffffffffffffffffffffffffffffffff1602179055506101c082015181600d0160006101000a81548173ffffffffffffffffffffffffffffffffffffffff021916908373ffffffffffffffffffffffffffffffffffffffff1602179055509050506001600654016006819055507f8e55ccfc9778ff8eba1646d765cf1982537ce0f9257054a17b48aad745250183886040518082815260200191505060405180910390a15050505050505050565b61230c33611f19565b61231557600080fd5b816002600781111561232357fe5b60076000838152602001908152602001600020600b0160009054906101000a900460ff16600781111561235257fe5b1461235c57600080fd5b6007600084815260200190815260200160002060030160009054906101000a900473ffffffffffffffffffffffffffffffffffffffff168073ffffffffffffffffffffffffffffffffffffffff163373ffffffffffffffffffffffffffffffffffffffff16146123cb57600080fd5b8260076000868152602001908152602001600020600a0181905550600360076000868152602001908152602001600020600b0160006101000a81548160ff0219169083600781111561241957fe5b02179055507fa96ae0fc3224ebd79eebfe54bd130cc9cb94416cddd1f2386115e00b72532468846040518082815260200191505060405180910390a150505050565b61246433611ce9565b61246d57600080fd5b806006600781111561247b57fe5b60076000838152602001908152602001600020600b0160009054906101000a900460ff1660078111156124aa57fe5b146124b457600080fd5b6000600760008481526020019081526020016000209050338160020160006101000a81548173ffffffffffffffffffffffffffffffffffffffff021916908373ffffffffffffffffffffffffffffffffffffffff1602179055503381600d0160006101000a81548173ffffffffffffffffffffffffffffffffffffffff021916908373ffffffffffffffffffffffffffffffffffffffff160217905550600781600b0160006101000a81548160ff0219169083600781111561257257fe5b02179055507f653d56639fee6b566a5c804764e9689de38645f0b733df89a36a1b7b42173dd8836040518082815260200191505060405180910390a1505050565b6125bc33612e69565b565b6125c733611d4d565b6125d057600080fd5b80600360078111156125de57fe5b60076000838152602001908152602001600020600b0160009054906101000a900460ff16600781111561260d57fe5b1461261757600080fd5b60076000838152602001908152602001600020600a01548034101561263b57600080fd5b82600060076000868152602001908152602001600020905060008160020160009054906101000a900473ffffffffffffffffffffffffffffffffffffffff169050338260020160006101000a81548173ffffffffffffffffffffffffffffffffffffffff021916908373ffffffffffffffffffffffffffffffffffffffff1602179055503382600b0160016101000a81548173ffffffffffffffffffffffffffffffffffffffff021916908373ffffffffffffffffffffffffffffffffffffffff160217905550600482600b0160006101000a81548160ff0219169083600781111561272357fe5b021790555060008173ffffffffffffffffffffffffffffffffffffffff1683600a015460405180600001905060006040518083038185875af1925050503d806000811461278c576040519150601f19603f3d011682016040523d82523d6000602084013e612791565b606091505b50509050806127eb576040517f08c379a000000000000000000000000000000000000000000000000000000000815260040180806020018281038252602c8152602001806132a7602c913960400191505060405180910390fd5b7f92f64ca637d023f354075a4be751b169c1a8a9ccb6d33cdd0cb3520543995727876040518082815260200191505060405180910390a1505050600060076000838152602001908152602001600020600a015490506000813403905060076000848152602001908152602001600020600d0160009054906101000a900473ffffffffffffffffffffffffffffffffffffffff1673ffffffffffffffffffffffffffffffffffffffff166108fc829081150290604051600060405180830381858888f193505050501580156128c3573d6000803e3d6000fd5b50505050505050565b6128d4611d6a565b6128dd57600080fd5b6128e681612ec3565b50565b6128f233611f19565b6128fb57600080fd5b806001600781111561290957fe5b60076000838152602001908152602001600020600b0160009054906101000a900460ff16600781111561293857fe5b1461294257600080fd5b6007600083815260200190815260200160002060030160009054906101000a900473ffffffffffffffffffffffffffffffffffffffff168073ffffffffffffffffffffffffffffffffffffffff163373ffffffffffffffffffffffffffffffffffffffff16146129b157600080fd5b600260076000858152602001908152602001600020600b0160006101000a81548160ff021916908360078111156129e457fe5b02179055507f9b3b66e2380b690bae22c73ef1428fb0c91e72fe14a4b6defa13035214187aff836040518082815260200191505060405180910390a1505050565b612a2e33611d4d565b612a3757600080fd5b8060046007811115612a4557fe5b60076000838152602001908152602001600020600b0160009054906101000a900460ff166007811115612a7457fe5b14612a7e57600080fd5b60076000838152602001908152602001600020600b0160019054906101000a900473ffffffffffffffffffffffffffffffffffffffff168073ffffffffffffffffffffffffffffffffffffffff163373ffffffffffffffffffffffffffffffffffffffff1614612aed57600080fd5b600560076000858152602001908152602001600020600b0160006101000a81548160ff02191690836007811115612b2057fe5b02179055507ff00b9a5725b80c54016f42114f6ed7792d22eecb116011c4afac29c57bef6c95836040518082815260200191505060405180910390a1505050565b612b75816004612fbb90919063ffffffff16565b8073ffffffffffffffffffffffffffffffffffffffff167f475f08a0d330251c9b2f04d9ce6dd51056b2681a3389e4abc8342ff284d968ab60405160405180910390a250565b60008073ffffffffffffffffffffffffffffffffffffffff168273ffffffffffffffffffffffffffffffffffffffff161415612bf657600080fd5b8260000160008373ffffffffffffffffffffffffffffffffffffffff1673ffffffffffffffffffffffffffffffffffffffff16815260200190815260200160002060009054906101000a900460ff16905092915050565b612c6181600461306790919063ffffffff16565b8073ffffffffffffffffffffffffffffffffffffffff167fe3f5ed5f263f1f01764a96edfc7d025f511ec5f7d180e8816908b78bcf74f09860405160405180910390a250565b612cbb816002612fbb90919063ffffffff16565b8073ffffffffffffffffffffffffffffffffffffffff167ff27e085f9bf778256f70e4819854b551faccc37018a95385bda66ee2ce122afa60405160405180910390a250565b612d15816002612fbb90919063ffffffff16565b8073ffffffffffffffffffffffffffffffffffffffff167ffb0e41ada6db6cce9d82b7cbb04e0798101c0388ade90bbfd9ee50d8520c97de60405160405180910390a250565b612d6f816001612fbb90919063ffffffff16565b8073ffffffffffffffffffffffffffffffffffffffff167f2e0ded4123377a3c2bc9a26f1717655a129e2f20752924d42e730ec89c83dbd060405160405180910390a250565b612dc981600161306790919063ffffffff16565b8073ffffffffffffffffffffffffffffffffffffffff167fa5e0f060af304ab17dd418c7927e3da3ae7868189bf387aee09ab179ccc572f260405160405180910390a250565b612e23816003612fbb90919063ffffffff16565b8073ffffffffffffffffffffffffffffffffffffffff167feec1214e6b8cb00b90a8b598bc5a7bdf4fbde6166f05ae8354c9f56f78971dba60405160405180910390a250565b612e7d81600361306790919063ffffffff16565b8073ffffffffffffffffffffffffffffffffffffffff167fba9dba798ffd19d638f0dd2e5ed81bf800f09ea09de9d36b7d1bfffa42f7ab2e60405160405180910390a250565b600073ffffffffffffffffffffffffffffffffffffffff168173ffffffffffffffffffffffffffffffffffffffff161415612efd57600080fd5b8073ffffffffffffffffffffffffffffffffffffffff166000809054906101000a900473ffffffffffffffffffffffffffffffffffffffff1673ffffffffffffffffffffffffffffffffffffffff167f5c486528ec3e3f0ea91181cff8116f02bfa350e03b8b6f12e00765adbb5af85c60405160405180910390a3806000806101000a81548173ffffffffffffffffffffffffffffffffffffffff021916908373ffffffffffffffffffffffffffffffffffffffff16021790555050565b600073ffffffffffffffffffffffffffffffffffffffff168173ffffffffffffffffffffffffffffffffffffffff161415612ff557600080fd5b612fff8282612bbb565b1561300957600080fd5b60018260000160008373ffffffffffffffffffffffffffffffffffffffff1673ffffffffffffffffffffffffffffffffffffffff16815260200190815260200160002060006101000a81548160ff0219169083151502179055505050565b600073ffffffffffffffffffffffffffffffffffffffff168173ffffffffffffffffffffffffffffffffffffffff1614156130a157600080fd5b6130ab8282612bbb565b6130b457600080fd5b60008260000160008373ffffffffffffffffffffffffffffffffffffffff1673ffffffffffffffffffffffffffffffffffffffff16815260200190815260200160002060006101000a81548160ff0219169083151502179055505050565b604051806101e001604052806000815260200160008152602001600073ffffffffffffffffffffffffffffffffffffffff168152602001600073ffffffffffffffffffffffffffffffffffffffff16815260200160608152602001606081526020016060815260200160608152602001600081526020016060815260200160008152602001600060078111156131a457fe5b8152602001600073ffffffffffffffffffffffffffffffffffffffff168152602001600073ffffffffffffffffffffffffffffffffffffffff168152602001600073ffffffffffffffffffffffffffffffffffffffff1681525090565b828054600181600116156101000203166002900490600052602060002090601f016020900481019282601f1061324257805160ff1916838001178555613270565b82800160010185558215613270579182015b8281111561326f578251825591602001919060010190613254565b5b50905061327d9190613281565b5090565b6132a391905b8082111561329f576000816000905550600101613287565b5090565b9056fe4d6f6e6579207472616e7366657220746f207468652070726576696f7573206f776e6572206661696c65642ea265627a7a72315820bd7089bf234c855169cff33109a5f425aab1bc4cb0cfa680c0a16b7a4783c86c64736f6c63430005100032",
  "source": "pragma solidity >=0.5.16 <0.6.0;\r\n\r\nimport \"../coffeecore/Ownable.sol\";\r\nimport \"../coffeeaccesscontrol/FarmerRole.sol\";\r\nimport \"../coffeeaccesscontrol/DistributorRole.sol\";\r\nimport \"../coffeeaccesscontrol/RetailerRole.sol\";\r\nimport \"../coffeeaccesscontrol/ConsumerRole.sol\";\r\n// Define a contract 'Supplychain'\r\ncontract SupplyChain is Ownable, FarmerRole, DistributorRole, RetailerRole, ConsumerRole {\r\n\r\n    // Define a variable called 'upc' for Universal Product Code (UPC)\r\n    uint  upc;\r\n\r\n    // Define a variable called 'sku' for Stock Keeping Unit (SKU)\r\n    uint  sku;\r\n\r\n    // Define a public mapping 'items' that maps the UPC to an Item.\r\n    mapping(uint => Item) items;\r\n\r\n    // Define enum 'State' with the following values:\r\n    enum State\r\n    {\r\n        Harvested, // 0\r\n        Processed, // 1\r\n        Packed, // 2\r\n        ForSale, // 3\r\n        Sold, // 4\r\n        Shipped, // 5\r\n        Received, // 6\r\n        Purchased   // 7\r\n    }\r\n\r\n    State constant defaultState = State.Harvested;\r\n\r\n    // Define a struct 'Item' with the following fields:\r\n    struct Item {\r\n        uint sku;  // Stock Keeping Unit (SKU)\r\n        uint upc; // Universal Product Code (UPC), generated by the Farmer, goes on the package, can be verified by the Consumer\r\n        address ownerID;  // Metamask-Ethereum address of the current owner as the product moves through 8 stages\r\n        address originFarmerID; // Metamask-Ethereum address of the Farmer\r\n        string originFarmName; // Farmer Name\r\n        string originFarmInformation;  // Farmer Information\r\n        string originFarmLatitude; // Farm Latitude\r\n        string originFarmLongitude;  // Farm Longitude\r\n        uint productID;  // Product ID potentially a combination of upc + sku\r\n        string productNotes; // Product Notes\r\n        uint productPrice; // Product Price\r\n        State itemState;  // Product State as represented in the enum above\r\n        address distributorID;  // Metamask-Ethereum address of the Distributor\r\n        address retailerID; // Metamask-Ethereum address of the Retailer\r\n        address payable consumerID; // Metamask-Ethereum address of the Consumer\r\n    }\r\n\r\n    // Define 8 events with the same 8 state values and accept 'upc' as input argument\r\n    event Harvested(uint upc);\r\n    event Processed(uint upc);\r\n    event Packed(uint upc);\r\n    event ForSale(uint upc);\r\n    event Sold(uint upc);\r\n    event Shipped(uint upc);\r\n    event Received(uint upc);\r\n    event Purchased(uint upc);\r\n\r\n    // Define a modifer that verifies the Caller\r\n    modifier verifyCaller (address _address) {\r\n        require(msg.sender == _address);\r\n        _;\r\n    }\r\n\r\n    // Define a modifier that checks if the paid amount is sufficient to cover the price\r\n    modifier paidEnough(uint _price) {\r\n        require(msg.value >= _price);\r\n        _;\r\n    }\r\n\r\n    // Define a modifier that checks the price and refunds the remaining balance\r\n    modifier checkValue(uint _upc) {\r\n        _;\r\n        uint _price = items[_upc].productPrice;\r\n        uint amountToReturn = msg.value - _price;\r\n        items[_upc].consumerID.transfer(amountToReturn);\r\n    }\r\n\r\n    // Define a modifier that checks if an item does not exist\r\n    modifier doesNotExist(uint _upc) {\r\n        require(items[_upc].upc != _upc);\r\n        _;\r\n    }\r\n\r\n    // Define a modifier that checks if an item.state of a upc is Harvested\r\n    modifier harvested(uint _upc) {\r\n        require(items[_upc].itemState == State.Harvested);\r\n        _;\r\n    }\r\n\r\n    // Define a modifier that checks if an item.state of a upc is Processed\r\n    modifier processed(uint _upc) {\r\n        require(items[_upc].itemState == State.Processed);\r\n        _;\r\n    }\r\n\r\n    // Define a modifier that checks if an item.state of a upc is Packed\r\n    modifier packed(uint _upc) {\r\n        require(items[_upc].itemState == State.Packed);\r\n        _;\r\n    }\r\n\r\n    // Define a modifier that checks if an item.state of a upc is ForSale\r\n    modifier forSale(uint _upc) {\r\n        require(items[_upc].itemState == State.ForSale);\r\n        _;\r\n    }\r\n\r\n    // Define a modifier that checks if an item.state of a upc is Sold\r\n    modifier sold(uint _upc) {\r\n        require(items[_upc].itemState == State.Sold);\r\n        _;\r\n    }\r\n\r\n    // Define a modifier that checks if an item.state of a upc is Shipped\r\n    modifier shipped(uint _upc) {\r\n        require(items[_upc].itemState == State.Shipped);\r\n        _;\r\n    }\r\n\r\n    // Define a modifier that checks if an item.state of a upc is Received\r\n    modifier received(uint _upc) {\r\n        require(items[_upc].itemState == State.Received);\r\n        _;\r\n    }\r\n\r\n    // Define a modifier that checks if an item.state of a upc is Purchased\r\n    modifier purchased(uint _upc) {\r\n        require(items[_upc].itemState == State.Purchased);\r\n        _;\r\n    }\r\n\r\n    // In the constructor set 'owner' to the address that instantiated the contract\r\n    // and set 'sku' to 0\r\n    // and set 'upc' to 1\r\n    constructor() public payable {\r\n        sku = 1;\r\n        upc = 1;\r\n    }\r\n\r\n    // Define a function 'kill' if required\r\n    function kill() public onlyOwner {\r\n        selfdestruct(owner());\r\n    }\r\n\r\n    // Define a function 'harvestItem' that allows a farmer to mark an item 'Harvested'\r\n    function harvestItem(\r\n        uint _upc,\r\n        address _originFarmerID,\r\n        string memory _originFarmName,\r\n        string memory _originFarmInformation,\r\n        string memory _originFarmLatitude,\r\n        string memory _originFarmLongitude,\r\n        string memory _productNotes) public onlyFarmer doesNotExist(_upc)\r\n    {\r\n        items[_upc] = Item(\r\n            sku,\r\n            _upc,\r\n            msg.sender,\r\n            _originFarmerID,\r\n            _originFarmName,\r\n            _originFarmInformation,\r\n            _originFarmLatitude,\r\n            _originFarmLongitude,\r\n            _upc + sku,\r\n            _productNotes,\r\n            0,\r\n            State.Harvested,\r\n            address(0),\r\n            address(0),\r\n            address(0)\r\n        );\r\n\r\n        sku = sku + 1;\r\n\r\n        emit Harvested(_upc);\r\n    }\r\n\r\n    // Define a function 'processtItem' that allows a farmer to mark an item 'Processed'\r\n    function processItem(uint _upc) public onlyFarmer harvested(_upc) verifyCaller(items[_upc].originFarmerID)\r\n    {\r\n        items[_upc].itemState = State.Processed;\r\n\r\n        emit Processed(_upc);\r\n    }\r\n\r\n    // Define a function 'packItem' that allows a farmer to mark an item 'Packed'\r\n    function packItem(uint _upc) public onlyFarmer processed(_upc) verifyCaller(items[_upc].originFarmerID)\r\n    {\r\n        items[_upc].itemState = State.Packed;\r\n\r\n        emit Packed(_upc);\r\n    }\r\n\r\n    // Define a function 'markItemForSale' that allows a farmer to mark an item 'ForSale'\r\n    function markItemForSale(uint _upc, uint _price) public onlyFarmer packed(_upc) verifyCaller(items[_upc].originFarmerID)\r\n    {\r\n        items[_upc].productPrice = _price;\r\n        items[_upc].itemState = State.ForSale;\r\n\r\n        emit ForSale(_upc);\r\n    }\r\n\r\n    // Define a function 'buyItem' that allows the disributor to mark an item 'Sold'\r\n    // Use the above defined modifiers to check if the item is available for sale, if the buyer has paid enough,\r\n    // and any excess ether sent is refunded back to the buyer\r\n    function buyItem(uint _upc) public payable onlyDistributor forSale(_upc) paidEnough(items[_upc].productPrice) checkValue(_upc) {\r\n        Item storage item = items[_upc];\r\n\r\n        address itemOwnerID = item.ownerID;\r\n\r\n        item.ownerID = msg.sender;\r\n        item.distributorID = msg.sender;\r\n        item.itemState = State.Sold;\r\n\r\n        // Transfer money to farmer\r\n        (bool success,) = itemOwnerID.call.value(item.productPrice)(\"\");\r\n        require(success, \"Money transfer to the previous owner failed.\");\r\n\r\n        // emit the appropriate event\r\n        emit Sold(_upc);\r\n    }\r\n\r\n    // Define a function 'shipItem' that allows the distributor to mark an item 'Shipped'\r\n    // Use the above modifers to check if the item is sold\r\n    function shipItem(uint _upc) public onlyDistributor sold(_upc) verifyCaller(items[_upc].distributorID)\r\n    {\r\n        items[_upc].itemState = State.Shipped;\r\n\r\n        emit Shipped(_upc);\r\n    }\r\n\r\n    // Define a function 'receiveItem' that allows the retailer to mark an item 'Received'\r\n    // Use the above modifiers to check if the item is shipped\r\n    function receiveItem(uint _upc) public onlyRetailer shipped(_upc)\r\n    {\r\n        Item storage item = items[_upc];\r\n\r\n        item.ownerID = msg.sender;\r\n        item.retailerID = msg.sender;\r\n        item.itemState = State.Received;\r\n\r\n        emit Received(_upc);\r\n    }\r\n\r\n    // Define a function 'purchaseItem' that allows the consumer to mark an item 'Purchased'\r\n    // Use the above modifiers to check if the item is received\r\n    function purchaseItem(uint _upc) public onlyConsumer received(_upc)\r\n    {\r\n        Item storage item = items[_upc];\r\n\r\n        item.ownerID = msg.sender;\r\n        item.consumerID = msg.sender;\r\n        item.itemState = State.Purchased;\r\n\r\n        emit Purchased(_upc);\r\n    }\r\n\r\n    function fetchItemBufferOne(uint _upc) public view returns (\r\n        uint itemSKU,\r\n        uint itemUPC,\r\n        address ownerID,\r\n        address originFarmerID,\r\n        string  memory originFarmName,\r\n        string  memory originFarmInformation,\r\n        string  memory originFarmLatitude,\r\n        string  memory originFarmLongitude\r\n    )\r\n    {\r\n        Item memory item = items[_upc];\r\n\r\n        itemSKU = item.sku;\r\n        itemUPC = _upc;\r\n        ownerID = item.ownerID;\r\n        originFarmerID = item.originFarmerID;\r\n        originFarmName = item.originFarmName;\r\n        originFarmInformation = item.originFarmInformation;\r\n        originFarmLatitude = item.originFarmLatitude;\r\n        originFarmLongitude = item.originFarmLongitude;\r\n    }\r\n\r\n    function fetchItemBufferTwo(uint _upc) public view returns (\r\n        uint itemSKU,\r\n        uint itemUPC,\r\n        uint productID,\r\n        string  memory productNotes,\r\n        uint productPrice,\r\n        uint itemState,\r\n        address distributorID,\r\n        address retailerID,\r\n        address consumerID\r\n    )\r\n    {\r\n        Item memory item = items[_upc];\r\n\r\n        itemSKU = item.sku;\r\n        itemUPC = item.upc;\r\n        productID = item.productID;\r\n        productNotes = item.productNotes;\r\n        productPrice = item.productPrice;\r\n        itemState = uint(item.itemState);\r\n        distributorID = item.distributorID;\r\n        retailerID = item.retailerID;\r\n        consumerID = item.consumerID;\r\n    }\r\n}",
  "sourcePath": "C:\\Users\\humph\\OneDrive\\Desktop\\nd1309-Project-6b-Example-Template\\project-6\\contracts\\coffeebase\\SupplyChain.sol",
  "compiler": {
    "name": "solc",
    "version": "0.5.16+commit.9c3226ce.Emscripten.clang"
  },
  "schemaVersion": "3.4.9",
  "updatedAt": "2022-08-26T00:56:12.206Z",
  "networkType": "ethereum",
  "devdoc": {
    "methods": {}
  },
  "userdoc": {
    "methods": {
      "isOwner()": {
        "notice": "Check if the calling address is the owner of the contract"
      },
      "owner()": {
        "notice": "Look up the address of the owner"
      },
      "renounceOwnership()": {
        "notice": "Define a function to renounce ownerhip"
      },
      "transferOwnership(address)": {
        "notice": "Define a public function to transfer ownership"
      }
    }
  }
}